S01100005346425F4C414253492E737265636E
S11300000C945F000C947C000C947C000C947C0099
S11300100C947C000C947C000C947C000C9486055D
S11300200C947C000C947C000C947C000C947C005C
S11300300C947C000C947C000C947C000C947C004C
S11300400C947C000C947C000C94B5050C947C00FE
S11300500C947C000C947C000C947C000C947C002C
S11300600C947C000C947C00084AD73B3BCE016E78
S113007084BCBFFDC12F3D6C74319ABD56833DDAFB
S11300803D00C77F11BED9E4BB4C3E916BAAAABE0A
S1130090000000803F07634236B79BD8A71A39682F
S11300A05618AEBAAB558C1D3CB7CC5763BD6DED3D
S11300B0FD753EF6177231BF000000803F00112429
S11300C01FBECFEFD8E0DEBFCDBF11E0A0E0B1E0AE
S11300D0E0E0F3E102C005900D92A032B107D9F738
S11300E021E0A0E2B1E001C01D92A43BB207E1F718
S11300F00E941F040C947E090C9400001092B90015
S11301008CE08093B800089594EA9093BC00ECEBE3
S1130110F0E090819923ECF79091B900987F9031A9
S113012099F48093BB0084E88093BC00ECEBF0E08E
S113013080818823ECF78091B900887F803431F086
S1130140803231F083E0089580E0089581E00895DD
S113015082E0089584E98093BC00ECEBF0E08081B8
S113016084FDFDCF0895BF92CF92DF92EF92FF926C
S11301700F931F93CF93DF93B82ECCEBD0E00F2EC9
S1130180F4EADF2EF02D09EB10E00F2EFBEBEF2E3F
S1130190F12CF02D0F2EF4E8CF2EF02DD88288818B
S11301A08823ECF7F8018081887F8830B9F7F7015C
S11301B0B082C88288818823ECF7F8018081887F27
S11301C0883119F00E94AA00E9CFDF91CF911F91E5
S11301D00F91FF90EF90DF90CF90BF9008958093A0
S11301E0BB0084E88093BC00ECEBF0E080818823C2
S11301F0ECF78091B900887F883221F0803321F0B8
S113020082E0089580E0089581E0089584EC80936D
S1130210BC00ECEBF0E080818823ECF78091BB001C
S1130220089584E88093BC00ECEBF0E0808188239F
S1130230ECF78091BB000895CF93DF93EC01288104
S1130240222389F030E0E0ECF0E046EC50E09081CD
S113025095FFFDCFDA012C933F5FDE01A30FB11DA3
S11302602C912111F4CFDF91CF9108958FE087B9BC
S113027086E084B998E79AB998E69BB993E098B96F
S113028090E5909380009CE0909381002FEF3FEFE6
S1130290309389002093880030938B0020938A0048
S11302A092E09093B0008093B1009093700028E5A1
S11302B02093B3001092C50023E32093C4009093CD
S11302C0C00098E99093C1008093C200789487E1BC
S11302D0E8E0F1E0A2E7B1E001900D928A95E1F740
S11302E082E791E00E941C0108952FEF84E39CE0D3
S11302F0215080409040E1F700C0000080ED0E9452
S1130300B30089E10E94EF0087E00E94EF000E94A1
S1130310AA0080ED0E94B3008BE60E94EF0081E00A
S11303200E94EF000E94AA0080ED0E94B3008AE1BF
S11303300E94EF0080E00E94EF000E94AA0080ED7E
S11303400E94B3008BE10E94EF0088E10E94EF005D
S11303500E94AA0080ED0E94B30088E30E94EF008F
S113036081E00E94EF000E94AA00089580ED0E949F
S1130370B3008BE30E94EF0081ED0E948400089596
S1130380CF930E94B6010E940601C82F0E94060165
S11303906C2F70E0762F6627682B072E000C880BD5
S11303A0990B0E94600760936C0170936D018093B8
S11303B06E0190936F010E940601C82F0E940601EE
S11303C06C2F70E0762F6627682B072E000C880BA5
S11303D0990B0E94600760935C0170935D018093A8
S11303E05E0190935F010E940601C82F0E940601DE
S11303F06C2F70E0762F6627682B072E000C880B75
S1130400990B0E94600760933E0170933F018093B3
S11304104001909341010E940601C82F0E940601E9
S11304206C2F70E0762F6627682B072E000C880B44
S1130430990B0E94600760934C0170934D01809367
S11304404E0190934F010E940601C82F0E9406019D
S11304506C2F70E0762F6627682B072E000C880B14
S1130460990B0E9460076093B0017093B10180936F
S1130470B2019093B3010E940601C82F0E9411019A
S11304806C2F70E0762F6627682B072E000C880BE4
S1130490990B0E94600760936801709369018093CF
S11304A06A0190936B010E94AA00CF9108954F9224
S11304B05F926F927F928F929F92AF92BF92CF92F0
S11304C0DF92EF92FF92CF93DF9300D000D0CDB7AD
S11304D0DEB740906C0150906D0160906E01709099
S11304E06F0160915C0170915D0180915E0190915A
S11304F05F0120E030E040E858E30E94B2084B017D
S11305005C0160913E0170913F01809140019091A6
S1130510410120E030E040E858E30E94B2086B015A
S11305207C01A5019401C501B4010E94B20869834C
S11305307A838B839C83A5019401C501B4010E9435
S1130540B2084B015C01A7019601C701B6010E94E4
S1130550B2089B01AC01C501B4010E94DC050E94F4
S113056025096B017C0120E030E040E858E3C30139
S1130570B2010E94B2089058A70196010E947C061D
S11305800E9448062091000130910101409102012E
S1130590509103010E94B2086B017C0160935801E1
S11305A07093590180935A0190935B016091B0015B
S11305B07091B1018091B2019091B30120E030E0DB
S11305C043E053E40E947C066093640170936501E8
S11305D08093660190936701209104013091050195
S11305E040910601509107010E94B2082091AC018C
S11305F03091AD014091AE015091AF010E94DC05F4
S113060028E431EE4AE75FE30E94B2084B015C0143
S11306102AE037ED43EA5CE3C701B6010E94B20861
S11306209B01AC01C501B4010E94DC056093AC01DF
S11306307093AD018093AE019093AF010F900F9032
S11306400F900F90DF91CF91FF90EF90DF90CF90BC
S1130650BF90AF909F908F907F906F905F904F90DE
S113066008958F929F92AF92BF92CF92DF92EF92B2
S1130670FF920F931F93CF93DF932091200130912A
S1130680210140912201509123016091AC017091AC
S1130690AD018091AE019091AF010E94DB050E94F3
S11306A028076B017C018B017093A5016093A40161
S11306B0C091A601D091A701BE016C0D7D1D072E2E
S11306C0000C880B990B0E94600720912401309143
S11306D0250140912601509127010E94B2084B0147
S11306E05C0120E030E040E85FEB0E9477061816DA
S11306F084F420E030E040E050E4C501B4010E94FD
S11307003708882374F0812C912C54016894B6F82E
S113071008C00F2E812C912CF0E8AF2EFFEBBF2EDA
S1130720F02D8092340190923501A0923601B0925E
S11307303701B6016C1B7D0B072E000C880B990B3F
S11307400E946007209128013091290140912A01DB
S113075050912B010E94B20820912C0130912D015F
S113076040912E0150912F010E94DC05A5019401B6
S11307700E94DC0560933001709331018093320153
S11307809093330111233CF418B88091A401909103
S1130790A501992314F083E088B9C0903001D0906A
S11307A03101E0903201F090330120E030E040E18B
S11307B051ECC701B6010E94770618169CF420E09C
S11307C030E040E151E4C701B6010E9437088823B4
S11307D08CF00F2EC12CD12CF0E1EF2EF1E4FF2E82
S11307E0F02D08C00F2EC12CD12CF0E1EF2EF1EC2E
S11307F0FF2EF02DC0923001D0923101E0923201EF
S1130800F09233018091A4019091A5019093A701E6
S11308108093A601C0922C01D0922D01E0922E016A
S1130820F0922F01DF91CF911F910F91FF90EF90E4
S1130830DF90CF90BF90AF909F908F900895CF930B
S1130840DF931F92CDB7DEB70E9436012FEF89E602
S113085098E1215080409040E1F700C000000E94E0
S11308607E000E94750110922001109221011092C5
S11308702201109223018DEC9CECACE0BFE3809349
S1130880280190932901A0932A01B0932B0120E021
S113089030E040E05FE360910401709105018091D4
S11308A00601909107010E94B20828EC31E74CE15F
S11308B05FE30E94B2086093240170932501809342
S11308C02601909327010F2EF8E8CF2ED12CF02D7E
S11308D00F2EFAE8EF2EF12CF02D08EA11E0332464
S11308E03A94EFEFE98377247394612C0F2EF4E8A4
S11308F04F2E512CF02D4A9915C08FEF9FEFF60122
S113090091838083F70191838083F80184819581A9
S1130910A681B7818093200190932101A0932201A5
S1130920B093230180913A01813029F70E94C001DC
S11309300E9457020E94310360913001709131018D
S113094080913201909133010E9428079B01772303
S113095024F422273327261B370BB901330F880BC6
S1130960990B0E94600722E538EB4EE95EEB0E948A
S1130970B2080E94F6062FE335E341E252E40E94F6
S1130980B2080E942807709371016093700160910E
S1130990A4017091A501072E000C880B990B0E94ED
S11309A060074B015C012DEC3CEC4CE45DEB0E94D8
S11309B03708181684F42DEC3CEC4CE45DE3C501D7
S11309C0B4010E947706181634F080E39AE29093FB
S11309D0710180937001F80184809580A680B780AE
S11309E020E030E0A901C501B4010E943708882342
S11309F08CF020E030E040E05FE3C501B4010E94E8
S1130A00770618163CF088EE9DEF90937101809361
S1130A10700119C020E030E040E05FEBC501B40193
S1130A200E94370888237CF020E030E0A901C5014A
S1130A30B4010E947706181634F0E8EEFDEFF09347
S1130A407101E0937001272C20E030E040EF51E485
S1130A50C501B4010E94370818160CF0262C211089
S1130A600CC020E030E040EF51ECC501B4010E941D
S1130A707706880F880B872109F130927001F9817C
S1130A80F0937101109230011092310110923201F1
S1130A9010923301109234011092350110923601F4
S1130AA0109237011092A7011092A60110922C0106
S1130AB010922D0110922E0110922F01F20120812B
S1130AC0318180917001909171012817390788F064
S1130AD0118210828091700190917101F6019183CD
S1130AE080838091700190917101F70191838083DB
S1130AF00AC0F60191838083809170019091710105
S1130B00F7019183808360923A01F5CE1F920F9290
S1130B100FB60F9211242F938F939F9380913A01D4
S1130B20811103C081E080933A0180913801909152
S1130B303901843F914041F49BB188E089278BB906
S1130B401092390110923801809138019091390145
S1130B50019690933901809338019F918F912F9141
S1130B600F900FBE0F901F9018951F920F920FB603
S1130B700F9211248F93EF93FF938091C000EBE3C6
S1130B80F1E0818381818C7129F0EDE3F1E08081D2
S1130B90826080838091C60080933B01EDE3F1E0A5
S1130BA0808181608083FF91EF918F910F900FBEC0
S1130BB00F901F9018955058BB27AA270E94F30541
S1130BC00C94FD070E94EF0738F00E94F60720F00E
S1130BD039F49F3F19F426F40C94C5070EF4E095FC
S1130BE0E7FB0C94BF07E92F0E940E0858F3BA17CD
S1130BF0620773078407950720F079F4A6F50C942F
S1130C0030080EF4E0950B2EBA2FA02D0B01B9017C
S1130C1090010C01CA01A0011124FF27591B99F06E
S1130C20593F50F4503E68F11A16F040A22F232F7A
S1130C30342F4427585FF3CF469537952795A795CA
S1130C40F0405395C9F77EF41F16BA0B620B730B71
S1130C50840BBAF09150A1F0FF0FBB1F661F771FE2
S1130C60881FC2F70EC0BA0F621F731F841F48F497
S1130C70879577956795B795F7959E3F08F0B0CF20
S1130C809395880F08F09927EE0F97958795089507
S1130C90DF93DD27B92FBF7740E85FE31616170609
S1130CA048075B0718F4D92F0E943C089F938F9341
S1130CB07F936F930E946509E8E6F0E00E94C807FD
S1130CC00E94FD072F913F914F915F910E94C508AB
S1130CD0DD2351F09058A2EA2AED3FE049EC5FE3AE
S1130CE0D0785D270E94F305DF910C94FD070E94E4
S1130CF09B0708F481E008950E9490060C94FD0778
S1130D000E94F60758F00E94EF0740F029F45F3F75
S1130D1029F00C94BF0751110C9431080C94C507A9
S1130D200E940E0868F39923B1F3552391F3951BA0
S1130D30550BBB27AA2762177307840738F09F5FF8
S1130D405F4F220F331F441FAA1FA9F335D00E2E65
S1130D503AF0E0E832D091505040E695001CCAF7D2
S1130D602BD0FE2F29D0660F771F881FBB1F261795
S1130D7037074807AB07B0E809F0BB0B802DBF016C
S1130D80FF2793585F4F3AF09E3F510578F00C943B
S1130D90BF070C9431085F3FE4F3983ED4F3869583
S1130DA077956795B795F7959F5FC9F7880F911D5C
S1130DB09695879597F90895E1E0660F771F881F48
S1130DC0BB1F621773078407BA0720F0621B730BFB
S1130DD0840BBA0BEE1F88F7E095089529F416F0FA
S1130DE00C94BF070C9430080C94C5070E94160895
S1130DF0A8F39638A0F707F80F92E8942BE33AEAA1
S1130E0048EB5FE70E94C8080F920F920F924DB70C
S1130E105EB70F920E947E08E5E9F0E00E94C807E1
S1130E204F915F91EF91FF91E595EE1FFF1F49F000
S1130E30FE57E0684427EE0F441FFA95E1F7419509
S1130E40550B0E9448080F9007FE0C943C08089527
S1130E500E942F076894B1110C94310808950E94E0
S1130E60160888F09F5798F0B92F9927B751B0F01A
S1130E70E1F0660F771F881F991F1AF0BA95C9F71A
S1130E8014C0B13091F00E943008B1E008950C9480
S1130E903008672F782F8827B85F39F0B93FCCF333
S1130EA0869577956795B395D9F73EF49095809597
S1130EB0709561957F4F8F4F9F4F0895E89409C0B7
S1130EC097FB3EF490958095709561957F4F8F4F79
S1130ED09F4F9923A9F0F92F96E9BB279395F6958F
S1130EE0879577956795B795F111F8CFFAF4BB0F0D
S1130EF011F460FF1BC06F5F7F4F8F4F9F4F16C071
S1130F00882311F096E911C0772321F09EE8872FFA
S1130F10762F05C0662371F096E8862F70E060E0B6
S1130F202AF09A95660F771F881FDAF7880F96952F
S1130F30879597F90895990F0008550FAA0BE0E8D3
S1130F40FEEF16161706E807F907C0F01216130687
S1130F50E407F50798F0621B730B840B950B39F4C7
S1130F600A2661F0232B242B252B21F408950A262D
S1130F7009F4A140A6958FEF811D811D089597F96D
S1130F809F6780E870E060E008959FEF80EC08952B
S1130F90DF93CF931F930F93FF92EF92DF927B0126
S1130FA08C01689406C0DA2EEF010E94C508FE0188
S1130FB0E894A5912591359145915591A6F3EF01BA
S1130FC00E94F305FE019701A801DA9469F7DF9006
S1130FD0EF90FF900F911F91CF91DF91089500241E
S1130FE00A941616170618060906089500240A948A
S1130FF012161306140605060895092E0394000C10
S113100011F4882352F0BB0F40F4BF2B11F460FF9E
S113101004C06F5F7F4F8F4F9F4F089557FD9058C7
S1131020440F551F59F05F3F71F04795880F97FBA8
S1131030991F61F09F3F79F0879508951216130662
S11310401406551FF2CF4695F1DF08C01616170691
S11310501806991FF1CF86957105610508940895C6
S1131060E894BB2766277727CB0197F908950E9458
S11310709B0708F48FEF08959B01AC0160E070E0DA
S113108080E89FE30C947C060C94BF070C946909D8
S11310900E941608D8F39923C9F3940F511DA3F3A2
S11310A09150504094F059F0882332F0660F771F26
S11310B0881F91505040C1F79E3F51052CF7880F6F
S11310C0911D9695879597F908955F3FACF0983EEA
S11310D09CF0BB27869577956795B79508F4B16022
S11310E09395C1F7BB0F58F711F460FFE8CF6F5F1A
S11310F07F4F8F4F9F4FE3CF0C943108FA01DC01EF
S1131100AA0FBB1F9B01AC01BF5728F4222733272A
S11311104427507820C0B75190F4AB2F0024469553
S113112037952795011CA395D2F3002071F0220F67
S1131130331F441FB395DAF30ED00C94DB056130F2
S11311407105A0E88A07B94630F49B01AC01662713
S1131150772788279078309621F020833183428343
S1131160538308950E94C5080C94FD070E94EF075D
S113117038F00E94F60720F0952311F00C94BF0775
S11311800C94C50711240C9431080E940E0870F3C6
S1131190959FC1F3950F50E0551F629FF001729F18
S11311A0BB27F00DB11D639FAA27F00DB11DAA1F27
S11311B0649F6627B00DA11D661F829F2227B00D74
S11311C0A11D621F739FB00DA11D621F839FA00DFF
S11311D0611D221F749F3327A00D611D231F849F4F
S11311E0600D211D822F762F6A2F11249F575040A6
S11311F09AF0F1F088234AF0EE0FFF1FBB1F661F21
S1131200771F881F91505040A9F79E3F510580F0E9
S11312100C94BF070C9431085F3FE4F3983ED4F379
S1131220869577956795B795F795E7959F5FC1F78D
S1131230FE2B880F911D9695879597F9089519F4BB
S113124016F40C94C5070C9469090E941608B8F3A7
S11312509923C9F3B6F39F57550B87FF0E9477096B
S11312600024A0E640EA900180585695979528F40A
S1131270805C660F771F881F20F026173707480702
S113128030F4621B730B840B202931294A2BA69559
S113129017940794202531254A2758F7660F771F9E
S11312A0881F20F026173707480730F4620B730BAA
S11312B0840B200D311D411DA09581F7B901842FA8
S11312C09158880F9695879508959B01AC010C94CD
S11312D0B2089F3F31F0915020F487957795679538
S11312E0B795880F911D9695879597F90895915014
S11312F05040660F771F881FD2F70895F894FFCFE8
S1131300E02E6542A48CB83A496E69742073756303
S11313106365737366756C6C792121210D0A000075
S9030000FC
